:100000000C945D000C9485000C9485000C94850084
:100010000C9485000C9485000C9485000C9485004C
:100020000C9485000C9485000C9485000C9485003C
:100030000C9485000C9485000C9485000C9485002C
:100040000C9457040C9485000C9485000C94850046
:100050000C9485000C9485000C9485000C9485000C
:100060000C94A1040C94850000000008000201001B
:100070000003040700000000000000000000000072
:10008000250028002B0000000000240027002A0083
:10009000040404040404040402020202020203032E
:1000A0000303030301020408102040800102040836
:1000B0001020010204081020C00511241FBECFEF3C
:1000C000D8E0DEBFCDBF11E0A0E0B1E0EEE9FEE098
:1000D00002C005900D92A434B107D9F722E0A4E440
:1000E000B1E001C01D92AF31B207E1F710E0CDE5FC
:1000F000D0E004C02197FE010E944707CC35D1070C
:10010000C9F70E94E2050C944D070C940000CF93B0
:10011000DF9390E0FC01EC55FF4F249180579F4FF7
:10012000FC0184918823C1F090E0880F991FFC01A5
:10013000EA57FF4FC591D491FC01E458FF4FA591B8
:10014000B4919FB7F8948881E22FE0958E2388833D
:100150008C91E823EC939FBFDF91CF91089590E0BD
:10016000FC01E859FF4F2491FC01EC55FF4F3491FD
:10017000FC01E057FF4FE491EE23C9F0222339F050
:10018000233001F1A8F4213019F1223029F1F0E0F7
:10019000EE0FFF1FE458FF4FA591B4918FB7F8946D
:1001A000EC91611126C030953E233C938FBF08959A
:1001B0002730A9F02830C9F0243049F78091800019
:1001C0008F7D03C0809180008F7780938000DFCF88
:1001D00084B58F7784BDDBCF84B58F7DFBCF8091D5
:1001E000B0008F778093B000D2CF8091B0008F7D28
:1001F000F9CF3E2BDACF8E50806480937C008091C3
:100200007A00806480937A0080917A0086FDFCCF2A
:10021000809178009091790008953FB7F89480918B
:10022000030290910402A0910502B091060226B546
:10023000A89B05C02F3F19F00196A11DB11D3FBF1E
:10024000BA2FA92F982F8827BC01CD01620F711DED
:10025000811D911D42E0660F771F881F991F4A95E7
:10026000D1F708958F929F92AF92BF92CF92DF9273
:10027000EF92FF924B015C010E940D016B017C012A
:100280000E940D016C197D098E099F09683E73401B
:1002900081059105A8F321E0821A9108A108B1080F
:1002A00088EEC80E83E0D81EE11CF11C8114910475
:1002B000A104B10429F7FF90EF90DF90CF90BF9099
:1002C000AF909F908F90089508950895AF92BF9238
:1002D000CF92DF92EF92FF920F931F93CF93DF9312
:1002E0006C017B018B01040F151FEB015E01AE1841
:1002F000BF08C017D10759F06991D601ED91FC9163
:100300000190F081E02DC6010995892B79F7C5018F
:10031000DF91CF911F910F91FF90EF90DF90CF90E1
:10032000BF90AF900895089520918501260F33273F
:10033000331F21323105ECF42091CE01FC0190E015
:1003400080E0243069F082E00895A0918501219138
:10035000AC014B595E4FA40FB52FB11D2C930196E4
:10036000861798F380918501680F6093850180E07E
:10037000089581E008951092CE0181E08093CD012F
:100380001092A80161E082E10E94AF0061E083E188
:100390000E94AF00E9EBF0E080818E7F8083808156
:1003A0008D7F808388E48093B80085E48093BC00CF
:1003B0000895CF93DF9391E0909364018823B9F07F
:1003C000C091B800D091BA008091BC008A7B809324
:1003D000BC0060E082E10E94AF0060E083E10E9427
:1003E000AF000E94BB01D093BA00C093B800DF9168
:1003F000CF9108950895E091FD018091FC01E817E7
:1004000030F4F0E0EC5BFE4F808190E008958FEFD8
:100410009FEF08959091FD018091FC012FEF3FEF38
:10042000981748F4E92FF0E0EC5BFE4F208130E0B4
:100430009F5F9093FD01C90108958091FC01909107
:10044000FD01891B990B0895CF92DF92EF92FF92E5
:100450000F931F93CF93DF937C01CB018A012091EF
:10046000D401222389F0EB016B01C40ED51ECC15FB
:10047000DD0569F06991D701ED91FC910190F08162
:10048000E02DC7010995F3CF642F0E949401C801A4
:10049000DF91CF911F910F91FF90EF90DF90CF9060
:1004A0000895CF93DF931F92CDB7DEB76983209174
:1004B000D4012223F9F02091FA01203258F021E0F2
:1004C00030E0FC013383228390E080E00F90DF91E5
:1004D000CF9108958091FB01E82FF0E0EB52FE4FA1
:1004E000998190838F5F8093FB018093FA0181E073
:1004F00090E0ECCF61E0CE0101960E949401F7CF2D
:10050000CF92DF92EF92FF920F931F93CF93DF93DF
:10051000FC01C48121E02093D401C093F501109225
:10052000FB011092FA018385682B87E092E00E941C
:100530005102D091FA01D13208F092C00E940D010F
:100540006B017C018091CE01811165C082E08093B6
:10055000CE0181E08093CD018FEF8093CC0110928A
:10056000CB01D093CA01A5EDB1E0EAEAF1E080E069
:10057000D81385C01092A9018091A901CC0FC82B76
:10058000C093A9018091A801813009F07CC010922C
:10059000A8010E940D016B017C018091A90180934B
:1005A000BB008091D0019091D101A091D201B09176
:1005B000D301892B8A2B8B2B99F00E940D0100917E
:1005C000D0011091D1012091D2013091D3016C1949
:1005D0007D098E099F090617170728073907E0F1DB
:1005E0008091BC0083FDD9CF85EC8093BC000E9434
:1005F0000D016B017C018091CE01823009F445C070
:100600008091CC018F3F61F18091CC01803241F12A
:100610008091CC0125C08091D0019091D101A09111
:10062000D201B091D301892B8A2B8B2B09F48ACF6D
:100630000E940D010091D0011091D1012091D201B1
:100640003091D3016C197D098E099F090617170790
:100650002807390708F076CF8091CF010E94D90191
:100660001092FB011092FA011092D401DF91CF9108
:100670001F910F91FF90EF90DF90CF9008959D9183
:1006800091938F5F75CF85EEB0CF8091D00190911F
:10069000D101A091D201B091D301892B8A2B8B2B50
:1006A00009F4A9CF0E940D010091D0011091D10150
:1006B0002091D2013091D3016C197D098E099F09D7
:1006C000061717072807390708F095CFC5CF90E020
:1006D00080E008958F929F92AF92BF920F931F93E5
:1006E000CF93DF93CDB7DEB7A1970FB6F894DEBFF7
:1006F0000FBECDBF19A2423008F44AE08E010F5D53
:100700001F4F842E912CB12CA12CA50194010E9485
:100710002507E62FB901CA01EA3044F5E05DD801AA
:10072000EE938D01232B242B252B79F790E080E08D
:10073000109769F0FD0101900020E9F73197AF01B2
:100740004A1B5B0BBD0183E192E00E946601A1960A
:100750000FB6F894DEBF0FBECDBFDF91CF911F91D2
:100760000F91BF90AF909F908F900895E95CD7CF85
:100770000F931F93CF938C01C62F0E9480026C2F82
:100780006460C8010E9480026C2F6B7FC8010E94C8
:10079000800283EC90E00197F1F7CF911F910F91C8
:1007A00008950F931F93CF93DF938C01D62FC42FFF
:1007B000607F642B0E94B80380E1D89FB0011124B0
:1007C0006C2BC801DF91CF911F910F910C94B8034E
:1007D000CF93DF93CDB7DEB728970FB6F894DEBF7F
:1007E0000FBECDBF98E0E0E0F1E0DE011196019090
:1007F0000D929A95E1F790911C02981708F48FEFEB
:1008000090E0880F991F21E030E02C0F3D1F820FF0
:10081000931FFC016081606840E083E192E02896CC
:100820000FB6F894DEBF0FBECDBFDF91CF910C9411
:10083000D10341E00E94D10381E090E0089585ED6D
:100840008093BC008091D0019091D101A091D20100
:10085000B091D3010796A11DB11D23E0B695A795D0
:10086000979587952A95D1F72091BC0024FD03C068
:100870001092CE0108954091D0015091D101609124
:10088000D2017091D301452B462B472B69F300977A
:10089000A105B10541F02AE22A95F1F700C00197C0
:1008A000A109B109E1CF8091CF010C94D9011F9228
:1008B0000F920FB60F9211242F933F938F939F9314
:1008C000AF93BF938091FF0190910002A09101022C
:1008D000B09102023091FE0123E0230F2D3758F52D
:1008E0000196A11DB11D2093FE018093FF019093FD
:1008F0000002A0930102B093020280910302909142
:100900000402A0910502B09106020196A11DB11D3D
:100910008093030290930402A0930502B093060211
:10092000BF91AF919F918F913F912F910F900FBEEB
:100930000F901F90189526E8230F0296A11DB11D58
:10094000D2CF1F920F920FB60F9211242F933F9385
:100950004F935F936F937F938F939F93AF93BF93C7
:10096000EF93FF938091B900887F803609F44AC0E5
:10097000F0F5883209F4A7C018F5803109F49BC05E
:10098000B8F4882309F4F9C0883009F494C0FF91C1
:10099000EF91BF91AF919F918F917F916F915F91F7
:1009A0004F913F912F910F900FBE0F901F90189570
:1009B000883109F488C0803251F78093CC0114C08B
:1009C000803409F49DC040F48033B9F38833F9F6DC
:1009D0008093CC0185ECB0C0803509F485C08835A2
:1009E00009F496C0883499F60E941F04D0CF883944
:1009F00009F48CC038F5883729F050F4883611F0A6
:100A0000803729F683E08093CE011092A70157C06A
:100A1000883809F47BC0803919F0803809F0B7CFE5
:100A20008091A701803208F071C0E091A70181E0B8
:100A30008E0F8093A7018091BB00F0E0E957FE4F35
:100A400080833DC0803B39F0E0F4803A09F479C0FE
:100A5000883A09F09CCF84E08093CE011092860101
:100A600010928501E091F801F091F90109958091CA
:100A7000850181110FC081E080938501109265018D
:100A800009C0803C09F4A6CF883C09F4A3CF883B79
:100A900009F07DCFE091860181E08E0F8093860181
:100AA000F0E0EB59FE4F80818093BB00909186016E
:100AB0008091850129C08091A9018093BB0085ECBC
:100AC0008093BC0064CF9091CB018091CA019817AC
:100AD00058F5E091CB0181E08E0F8093CB01F0E0DF
:100AE000E655FE4F8081E9CFE091CB0181E08E0F8A
:100AF0008093CB018091BB00F0E0E655FE4F8083F0
:100B00009091CB018091CA019817C8F285E8D8CF9F
:100B1000E091CB0181E08E0F8093CB018091BB00EF
:100B2000F0E0E655FE4F80838091CD0181115CCFCE
:100B300081E08093A80184EA8093BC001092CE01EA
:100B400026CF85EC8093BC001092CE018091A70146
:100B5000803230F4E091A701F0E0E957FE4F1082B7
:100B60006091A70170E0E091F601F091F70187E84C
:100B700091E009951092A7010ACF1092CC0134CFD1
:100B8000E7E0F2E01382128288EE93E0A0E0B0E0AA
:100B900084839583A683B7838CE091E091838083DF
:100BA000E3E1F2E0138212828EE191E0918380838F
:100BB0008CE7848380E1808782E08187128688E0E9
:100BC00083870895789484B5826084BD84B58160FC
:100BD00084BD85B5826085BD85B5816085BD809108
:100BE0006E00816080936E00109281008091810080
:100BF0008260809381008091810081608093810078
:100C0000809180008160809380008091B100846039
:100C10008093B1008091B00081608093B00080919A
:100C20007A00846080937A0080917A008260809359
:100C30007A0080917A00816080937A0080917A00B6
:100C4000806880937A001092C1001092FD0110928A
:100C5000FC011092FB011092FA010E94BB0184E694
:100C600091E09093F9018093F80185E691E09093EB
:100C7000F7018093F6011092180280911C028230D5
:100C800018F098E09093180290911D02992339F082
:100C9000813029F48091180284608093180262E305
:100CA00070E080E090E00E94320160911E0283E1DA
:100CB00092E00E94800268EE73E080E090E00E9483
:100CC000320160E383E192E00E94B803CBE4D6E412
:100CD000CE010197F1F760E383E192E00E94B8034F
:100CE0002197F1F760E383E192E00E94B80383E586
:100CF00092E00197F1F760E283E192E00E94B8038D
:100D000060911802606240E083E192E00E94D103AA
:100D100084E08093190240E06CE083E192E00E945D
:100D2000D10340E061E083E192E00E94D103CBE394
:100D3000DFE1CE010197F1F782E080931A0240E0F3
:100D400066E083E192E00E94D10340E062E083E14B
:100D500092E00E94D1032197F1F788E080931E0270
:100D600060E083E192E00E9480028EE00E948700B2
:100D70008FE00E948700CBE3DFE100E010E08EE02F
:100D80000E94FB004C018FE00E94FB006C0140E0E0
:100D900061E083E192E00E94D103CE010197F1F777
:100DA00080E00E94E8034FE050E066E271E083E1FA
:100DB00092E00E946601092C000CAA08BB084AE0D8
:100DC000C501B401B7FE0EC041E06DE283E192E0DF
:100DD0000E94D10366277727CB01681979098A0910
:100DE0009B094AE00E946A0381E00E94E8034CE00C
:100DF00050E066E371E083E192E00E9466010D2C11
:100E0000000CEE08FF084AE0C701B601F7FE0EC06D
:100E100041E06DE283E192E00E94D10366277727EB
:100E2000CB016C197D098E099F094AE00E946A0373
:100E300068EE73E080E090E00E9432010115110538
:100E400009F49DCF0E9400009ACFA1E21A2EAA1B9E
:100E5000BB1BFD010DC0AA1FBB1FEE1FFF1FA2176A
:100E6000B307E407F50720F0A21BB30BE40BF50B67
:100E7000661F771F881F991F1A9469F760957095F0
:100E8000809590959B01AC01BD01CF010895EE0FB7
:0E0E9000FF1F0590F491E02D0994F894FFCF18
:100E9E000000400014005400000000005102240223
:100EAE006703FA011D020A02FB010000000019048B
:100EBE00660167039301476C75636F7365204C651C
:100ECE0076656C3A200048656172742052617465D3
:040EDE003A200000B6
:00000001FF
